{
  "contractName": "Hashminer",
  "abi": [
    {
      "constant": true,
      "inputs": [
        {
          "name": "",
          "type": "uint256"
        }
      ],
      "name": "players",
      "outputs": [
        {
          "name": "nonce",
          "type": "uint256"
        },
        {
          "name": "wallet",
          "type": "address"
        }
      ],
      "payable": false,
      "stateMutability": "view",
      "type": "function"
    },
    {
      "inputs": [],
      "payable": false,
      "stateMutability": "nonpayable",
      "type": "constructor"
    },
    {
      "anonymous": false,
      "inputs": [
        {
          "indexed": false,
          "name": "_gameLocked",
          "type": "bool"
        }
      ],
      "name": "LogGameLock",
      "type": "event"
    },
    {
      "anonymous": false,
      "inputs": [
        {
          "indexed": false,
          "name": "_maxNumberOfPlayers",
          "type": "uint256"
        },
        {
          "indexed": false,
          "name": "_gameCost",
          "type": "uint256"
        },
        {
          "indexed": false,
          "name": "_prize",
          "type": "uint256"
        },
        {
          "indexed": false,
          "name": "_callerIncentive",
          "type": "uint256"
        }
      ],
      "name": "LogGameOptionsSet",
      "type": "event"
    },
    {
      "anonymous": false,
      "inputs": [
        {
          "indexed": false,
          "name": "_wallet",
          "type": "address"
        },
        {
          "indexed": false,
          "name": "_withdrawAmount",
          "type": "uint256"
        }
      ],
      "name": "LogHouseWithdraw",
      "type": "event"
    },
    {
      "anonymous": false,
      "inputs": [
        {
          "indexed": false,
          "name": "_playerCounter",
          "type": "uint256"
        },
        {
          "indexed": false,
          "name": "_nonce",
          "type": "uint256"
        },
        {
          "indexed": false,
          "name": "_wallet",
          "type": "address"
        }
      ],
      "name": "LogPlayerAdded",
      "type": "event"
    },
    {
      "anonymous": false,
      "inputs": [
        {
          "indexed": false,
          "name": "_blockNumber",
          "type": "uint256"
        }
      ],
      "name": "LogPlayersReady",
      "type": "event"
    },
    {
      "anonymous": false,
      "inputs": [
        {
          "indexed": false,
          "name": "_blockNumber",
          "type": "uint256"
        },
        {
          "indexed": false,
          "name": "_blockHash",
          "type": "bytes32"
        },
        {
          "indexed": false,
          "name": "_winningNonce",
          "type": "uint256"
        },
        {
          "indexed": false,
          "name": "_winner",
          "type": "address"
        },
        {
          "indexed": false,
          "name": "_caller",
          "type": "address"
        },
        {
          "indexed": false,
          "name": "_gameLocked",
          "type": "bool"
        }
      ],
      "name": "LogGameFinished",
      "type": "event"
    },
    {
      "constant": false,
      "inputs": [],
      "name": "kill",
      "outputs": [],
      "payable": false,
      "stateMutability": "nonpayable",
      "type": "function"
    },
    {
      "constant": false,
      "inputs": [],
      "name": "lockGame",
      "outputs": [],
      "payable": false,
      "stateMutability": "nonpayable",
      "type": "function"
    },
    {
      "constant": false,
      "inputs": [
        {
          "name": "_maxNumberOfPlayers",
          "type": "uint256"
        },
        {
          "name": "_gameCost",
          "type": "uint256"
        },
        {
          "name": "_prize",
          "type": "uint256"
        },
        {
          "name": "_callerIncentive",
          "type": "uint256"
        }
      ],
      "name": "setGameOptions",
      "outputs": [],
      "payable": false,
      "stateMutability": "nonpayable",
      "type": "function"
    },
    {
      "constant": false,
      "inputs": [
        {
          "name": "_withdrawAmount",
          "type": "uint256"
        },
        {
          "name": "_wallet",
          "type": "address"
        }
      ],
      "name": "houseWithdraw",
      "outputs": [],
      "payable": false,
      "stateMutability": "nonpayable",
      "type": "function"
    },
    {
      "constant": false,
      "inputs": [
        {
          "name": "_nonce",
          "type": "uint256"
        }
      ],
      "name": "playGame",
      "outputs": [],
      "payable": true,
      "stateMutability": "payable",
      "type": "function"
    },
    {
      "constant": false,
      "inputs": [],
      "name": "revealWinner",
      "outputs": [],
      "payable": false,
      "stateMutability": "nonpayable",
      "type": "function"
    },
    {
      "constant": true,
      "inputs": [],
      "name": "getGameInfo",
      "outputs": [
        {
          "name": "_owner",
          "type": "address"
        },
        {
          "name": "_gameLocked",
          "type": "bool"
        },
        {
          "name": "_maxNumberOfPlayers",
          "type": "uint256"
        },
        {
          "name": "_playerCounter",
          "type": "uint256"
        },
        {
          "name": "_gameCost",
          "type": "uint256"
        },
        {
          "name": "_blockNumber",
          "type": "uint256"
        },
        {
          "name": "_blockHash",
          "type": "bytes32"
        },
        {
          "name": "_winningNonce",
          "type": "uint256"
        },
        {
          "name": "_winner",
          "type": "address"
        },
        {
          "name": "_prize",
          "type": "uint256"
        },
        {
          "name": "_callerIncentive",
          "type": "uint256"
        },
        {
          "name": "_caller",
          "type": "address"
        }
      ],
      "payable": false,
      "stateMutability": "view",
      "type": "function"
    },
    {
      "constant": true,
      "inputs": [],
      "name": "getPlayersInfo",
      "outputs": [
        {
          "name": "",
          "type": "address[]"
        },
        {
          "name": "",
          "type": "uint256[]"
        }
      ],
      "payable": false,
      "stateMutability": "view",
      "type": "function"
    }
  ],
  "bytecode": "0x6060604052600460015566b1a2bc2ec5000060455566b1a2bc2ec50000604a5566071afd498d0000604b55341561003557600080fd5b336000806101000a81548173ffffffffffffffffffffffffffffffffffffffff021916908373ffffffffffffffffffffffffffffffffffffffff160217905550610f96806100846000396000f300606060405260043610610099576000357c0100000000000000000000000000000000000000000000000000000000900463ffffffff1680631746bd1b1461009e57806328477285146101a457806341c0e1b51461025657806349f1e4591461026b5780635873533d146102a95780636c699905146102c15780638e6f0851146102d6578063f71d96cb14610318578063fef6e01514610382575b600080fd5b34156100a957600080fd5b6100b1610397565b604051808d73ffffffffffffffffffffffffffffffffffffffff1673ffffffffffffffffffffffffffffffffffffffff1681526020018c1515151581526020018b81526020018a815260200189815260200188815260200187600019166000191681526020018681526020018573ffffffffffffffffffffffffffffffffffffffff1673ffffffffffffffffffffffffffffffffffffffff1681526020018481526020018381526020018273ffffffffffffffffffffffffffffffffffffffff1673ffffffffffffffffffffffffffffffffffffffff1681526020019c5050505050505050505050505060405180910390f35b34156101af57600080fd5b6101b761045f565b604051808060200180602001838103835285818151815260200191508051906020019060200280838360005b838110156101fe5780820151818401526020810190506101e3565b50505050905001838103825284818151815260200191508051906020019060200280838360005b83811015610240578082015181840152602081019050610225565b5050505090500194505050505060405180910390f35b341561026157600080fd5b6102696105df565b005b341561027657600080fd5b6102a7600480803590602001909190803590602001909190803590602001909190803590602001909190505061069d565b005b6102bf600480803590602001909190505061079a565b005b34156102cc57600080fd5b6102d46109b1565b005b34156102e157600080fd5b610316600480803590602001909190803573ffffffffffffffffffffffffffffffffffffffff16906020019091905050610cfa565b005b341561032357600080fd5b6103396004808035906020019091905050610e2d565b604051808381526020018273ffffffffffffffffffffffffffffffffffffffff1673ffffffffffffffffffffffffffffffffffffffff1681526020019250505060405180910390f35b341561038d57600080fd5b610395610e71565b005b6000806000806000806000806000806000806000809054906101000a900473ffffffffffffffffffffffffffffffffffffffff16600060149054906101000a900460ff16600154604454604554604654604754604854604960009054906101000a900473ffffffffffffffffffffffffffffffffffffffff16604a54604b54604c60009054906101000a900473ffffffffffffffffffffffffffffffffffffffff169b509b509b509b509b509b509b509b509b509b509b509b50909192939495969798999a9b565b610467610f42565b61046f610f56565b610477610f42565b61047f610f56565b60006044546040518059106104915750595b908082528060200260200182016040525092506044546040518059106104b45750595b90808252806020026020018201604052509150600090505b6044548110156105d25760006003826041811015156104e757fe5b01541415156105c5576002600060038360418110151561050357fe5b0154815260200190815260200160002060010160009054906101000a900473ffffffffffffffffffffffffffffffffffffffff16838281518110151561054557fe5b9060200190602002019073ffffffffffffffffffffffffffffffffffffffff16908173ffffffffffffffffffffffffffffffffffffffff16815250506002600060038360418110151561059457fe5b015481526020019081526020016000206000015482828151811015156105b657fe5b90602001906020020181815250505b80806001019150506104cc565b8282945094505050509091565b6000809054906101000a900473ffffffffffffffffffffffffffffffffffffffff1673ffffffffffffffffffffffffffffffffffffffff163373ffffffffffffffffffffffffffffffffffffffff1614151561063a57600080fd5b600060149054906101000a900460ff16801561065857506000604454145b151561066357600080fd5b6000809054906101000a900473ffffffffffffffffffffffffffffffffffffffff1673ffffffffffffffffffffffffffffffffffffffff16ff5b6000809054906101000a900473ffffffffffffffffffffffffffffffffffffffff1673ffffffffffffffffffffffffffffffffffffffff163373ffffffffffffffffffffffffffffffffffffffff161415156106f857600080fd5b600060149054906101000a900460ff16801561071657506000604454145b151561072157600080fd5b836001819055508260458190555081604a8190555080604b819055507fc44d140db23070d3c7b8d8483868914f9eaf531ffe2825bc2ff84629ceb909c0600154604554604a54604b546040518085815260200184815260200183815260200182815260200194505050505060405180910390a150505050565b6000604554341415156107ac57600080fd5b600060149054906101000a900460ff1615806107ca57506000604454115b15156107d557600080fd5b816000111580156107e7575060015482105b15156107f257600080fd5b600090505b60445481101561082b5760038160418110151561081057fe5b015482141561081e57600080fd5b80806001019150506107f7565b60446000815480929190600101919050555060408051908101604052808381526020013373ffffffffffffffffffffffffffffffffffffffff16815250600260008481526020019081526020016000206000820151816000015560208201518160010160006101000a81548173ffffffffffffffffffffffffffffffffffffffff021916908373ffffffffffffffffffffffffffffffffffffffff1602179055509050508160036044546041811015156108e157fe5b01819055507f6a6770f1cb5f64375eb2d13a80705a7569fd70431c93463f1d6c9d7c0cb796516044548333604051808481526020018381526020018273ffffffffffffffffffffffffffffffffffffffff1673ffffffffffffffffffffffffffffffffffffffff168152602001935050505060405180910390a1600180540360445414156109ad57600343016046819055507f3eec234f039bf7eff193599272a894866d5a858c820efb47547511e5f8f3cd1d6046546040518082815260200191505060405180910390a15b5050565b600060018054036044541415156109c757600080fd5b604654431115156109d757600080fd5b60465440604781600019169055506001805403604654604754604051808381526020018260001916600019168152602001925050506040518091039020600190041660488190555060026000604854815260200190815260200160002060010160009054906101000a900473ffffffffffffffffffffffffffffffffffffffff16604960006101000a81548173ffffffffffffffffffffffffffffffffffffffff021916908373ffffffffffffffffffffffffffffffffffffffff160217905550604960009054906101000a900473ffffffffffffffffffffffffffffffffffffffff1673ffffffffffffffffffffffffffffffffffffffff166108fc604a549081150290604051600060405180830381858888f193505050501515610afc57600080fd5b6000604481905550600090505b600154811015610b36576000600382604181101515610b2457fe5b01819055508080600101915050610b09565b33604c60006101000a81548173ffffffffffffffffffffffffffffffffffffffff021916908373ffffffffffffffffffffffffffffffffffffffff160217905550604c60009054906101000a900473ffffffffffffffffffffffffffffffffffffffff1673ffffffffffffffffffffffffffffffffffffffff166108fc604b549081150290604051600060405180830381858888f193505050501515610bdb57600080fd5b7fa1636fb6520292aa04a81c133d8854b3a08ece78bbea15f23a4dccc8d8aee38c604654604754604854604960009054906101000a900473ffffffffffffffffffffffffffffffffffffffff16604c60009054906101000a900473ffffffffffffffffffffffffffffffffffffffff16600060149054906101000a900460ff166040518087815260200186600019166000191681526020018581526020018473ffffffffffffffffffffffffffffffffffffffff1673ffffffffffffffffffffffffffffffffffffffff1681526020018373ffffffffffffffffffffffffffffffffffffffff1673ffffffffffffffffffffffffffffffffffffffff16815260200182151515158152602001965050505050505060405180910390a150565b6000809054906101000a900473ffffffffffffffffffffffffffffffffffffffff1673ffffffffffffffffffffffffffffffffffffffff163373ffffffffffffffffffffffffffffffffffffffff16141515610d5557600080fd5b600060149054906101000a900460ff168015610d7357506000604454145b1515610d7e57600080fd5b8073ffffffffffffffffffffffffffffffffffffffff166108fc839081150290604051600060405180830381858888f193505050501515610dbe57600080fd5b7f159fdf827a20724abca9e5456f024ab3f26aac0f5249e990d1664786c24041638183604051808373ffffffffffffffffffffffffffffffffffffffff1673ffffffffffffffffffffffffffffffffffffffff1681526020018281526020019250505060405180910390a15050565b60026020528060005260406000206000915090508060000154908060010160009054906101000a900473ffffffffffffffffffffffffffffffffffffffff16905082565b6000809054906101000a900473ffffffffffffffffffffffffffffffffffffffff1673ffffffffffffffffffffffffffffffffffffffff163373ffffffffffffffffffffffffffffffffffffffff16141515610ecc57600080fd5b600060149054906101000a900460ff1615600060146101000a81548160ff0219169083151502179055507feeaa626a63befc8516ccacd3c2d2528dbb2a56dc447678a2d05c9b25fbe3417b600060149054906101000a900460ff16604051808215151515815260200191505060405180910390a1565b602060405190810160405280600081525090565b6020604051908101604052806000815250905600a165627a7a723058201565ec19fc4ac7c4d5ca70333c6b457e3c3faf6849858376da512c5650fb8c460029",
  "source": "pragma solidity ^0.4.19;\r\n\r\ncontract Hashminer {\r\n  // custom types\r\n  struct Player {\r\n  uint nonce;\r\n  address wallet;\r\n  }\r\n\r\n  // state variables\r\n  address owner;\r\n  bool gameLocked;\r\n  uint maxNumberOfPlayers = 4; // must be 2^N\r\n  mapping (uint => Player) public players;\r\n  uint[65] takenNonces; // array size must be at least maxNumberOfPlayers+1\r\n  uint playerCounter;\r\n  uint gameCost = 50 finney;\r\n  uint blockNumber;\r\n  bytes32 blockHash;\r\n  uint winningNonce;\r\n  address winner;\r\n  uint prize = 50 finney;\r\n  uint callerIncentive = 2 finney;\r\n  address caller;\r\n\r\n  // events\r\n  event LogGameLock(\r\n    bool _gameLocked\r\n  );\r\n  event LogGameOptionsSet(\r\n    uint _maxNumberOfPlayers,\r\n    uint _gameCost,\r\n    uint _prize,\r\n    uint _callerIncentive\r\n  );\r\n  event LogHouseWithdraw(\r\n    address _wallet,\r\n    uint _withdrawAmount\r\n  );\r\n  event LogPlayerAdded(\r\n    uint _playerCounter,\r\n    uint _nonce,\r\n    address _wallet\r\n  );\r\n  event LogPlayersReady(\r\n    uint _blockNumber\r\n  );\r\n  event LogGameFinished(\r\n    uint _blockNumber,\r\n    bytes32 _blockHash,\r\n    uint _winningNonce,\r\n    address _winner,\r\n    address _caller,\r\n    bool _gameLocked\r\n  );\r\n\r\n  // constructor\r\n  function Hashminer() public {\r\n    owner = msg.sender;\r\n  }\r\n\r\n  // deactivate the contract\r\n  function kill() public {\r\n    // only allow the contract owner\r\n    require(msg.sender == owner);\r\n\r\n    // check that game is locked and not active. This ensures deactivation is only possible when game is inactive\r\n    require(gameLocked && (playerCounter == 0));\r\n\r\n    selfdestruct(owner);\r\n  }\r\n\r\n  // lock or unlock game after current game ends for game option changes and front-end updates\r\n  function lockGame() public {\r\n    // only allow the contract owner\r\n    require(msg.sender == owner);\r\n\r\n    // lock/unlock game\r\n    gameLocked = !gameLocked;\r\n    LogGameLock(gameLocked);\r\n  }\r\n\r\n  // change game settings\r\n  function setGameOptions(uint _maxNumberOfPlayers, uint _gameCost,\r\n    uint _prize, uint _callerIncentive) public {\r\n    // only allow the contract owner to make changes\r\n    require(msg.sender == owner);\r\n\r\n    // check that game is locked and not active. This ensures game rules are not changed during game\r\n    require(gameLocked && (playerCounter == 0));\r\n\r\n    // change game settings\r\n    maxNumberOfPlayers = _maxNumberOfPlayers;\r\n    gameCost = _gameCost;\r\n    prize = _prize;\r\n    callerIncentive = _callerIncentive;\r\n    LogGameOptionsSet(maxNumberOfPlayers, gameCost, prize, callerIncentive);\r\n  }\r\n\r\n  // transfer funds from house to given an address\r\n  function houseWithdraw(uint _withdrawAmount, address _wallet) public {\r\n    // only allow the contract owner to withdraw\r\n    require(msg.sender == owner);\r\n\r\n    // check that game is locked and not active. This ensures there will be enough funds to pay the current game winner\r\n    require(gameLocked && (playerCounter == 0));\r\n\r\n    // transfer to  address _wallet\r\n    _wallet.transfer(_withdrawAmount);\r\n    LogHouseWithdraw(_wallet, _withdrawAmount);\r\n  }\r\n\r\n  // add player to the game\r\n  function playGame(uint _nonce) payable public {\r\n    // check that value transferred matches the cost to play\r\n    require(msg.value == gameCost);\r\n\r\n    // check that game is unlocked or already active\r\n    require((!gameLocked) || (playerCounter > 0));\r\n\r\n    // check that the nonce is within the accepted range of values\r\n    require((0 <= _nonce) && (_nonce < maxNumberOfPlayers));\r\n\r\n    // check that the nonce has not been taken. This also checks that the game is not full.\r\n    for (uint i = 0; i < playerCounter; i++) {\r\n      if (_nonce == takenNonces[i]) {revert();}\r\n    }\r\n\r\n    // add new player\r\n    playerCounter++;\r\n    players[_nonce] = Player(_nonce, msg.sender);\r\n\r\n    // add nonce to list of already chosen ones.\r\n    takenNonces[playerCounter] = _nonce;\r\n\r\n    LogPlayerAdded(playerCounter, _nonce, msg.sender);\r\n\r\n    // save number of the block that will determine the winner if game is full\r\n    if (playerCounter == (maxNumberOfPlayers - 1)) {\r\n      blockNumber = block.number + 3;\r\n      LogPlayersReady(blockNumber);\r\n    }\r\n  }\r\n\r\n  // reveal game winner, transfer the prize and the reward to the caller\r\n  function revealWinner() public {\r\n    // check that game is full\r\n    require(playerCounter == (maxNumberOfPlayers - 1));\r\n\r\n    // check that the block that determines the winner has been mined\r\n    require(block.number > blockNumber);\r\n\r\n    // obtain hash of the block that determined the winner\r\n    blockHash = block.blockhash(blockNumber);\r\n\r\n    // obtain winning nonce. The desired blockHash ending for a given nonce is varied each game\r\n    winningNonce = (uint(keccak256(blockNumber, blockHash)) & (maxNumberOfPlayers - 1));\r\n\r\n    // transfer prize to winning player\r\n    winner = players[winningNonce].wallet;\r\n    winner.transfer(prize);\r\n\r\n    // reset playerCounter and takenNonces to restart game. BETTER WAY TO DO THIS WITHOUT LOOPING!!!????\r\n    playerCounter = 0;\r\n    for (uint j = 0; j < maxNumberOfPlayers; j++) {\r\n      takenNonces[j] = 0;\r\n    }\r\n\r\n    // store the caller address and transfer their reward\r\n    caller = msg.sender;\r\n    caller.transfer(callerIncentive);\r\n    LogGameFinished(blockNumber, blockHash, winningNonce, winner, caller, gameLocked);\r\n  }\r\n\r\n  // get game information\r\n  function getGameInfo() public view returns (\r\n    address _owner,\r\n    bool _gameLocked,\r\n    uint _maxNumberOfPlayers,\r\n    uint _playerCounter,\r\n    uint _gameCost,\r\n    uint _blockNumber,\r\n    bytes32 _blockHash,\r\n    uint _winningNonce,\r\n    address _winner,\r\n    uint _prize,\r\n    uint _callerIncentive,\r\n    address _caller\r\n    ) {\r\n    return(\r\n      owner,\r\n      gameLocked,\r\n      maxNumberOfPlayers,\r\n      playerCounter,\r\n      gameCost,\r\n      blockNumber,\r\n      blockHash,\r\n      winningNonce,\r\n      winner,\r\n      prize,\r\n      callerIncentive,\r\n      caller);\r\n  }\r\n\r\n  // get current players information\r\n  function getPlayersInfo() public view returns (address[], uint[]) {\r\n    // prepare output arrays\r\n    address[] memory playerAddresses = new address[](playerCounter);\r\n    uint[] memory playerNonces = new uint[](playerCounter);\r\n\r\n    // iterate over all taken nonces\r\n    for(uint i = 0; i < playerCounter;  i++) {\r\n      // save the player address and nonce if that nonce has already been selected\r\n      if(takenNonces[i] != 0) {\r\n        playerAddresses[i] = players[takenNonces[i]].wallet;\r\n        playerNonces[i] = players[takenNonces[i]].nonce;\r\n      }\r\n    }\r\n\r\n    return (playerAddresses, playerNonces);\r\n  }\r\n\r\n}\r\n",
  "sourcePath": "C:\\Users\\handr\\Garrison\\Hashminer\\contracts\\Hashminer.sol",
  "compiler": {
    "name": "solc",
    "version": "0.4.19+commit.c4cbbb05.Emscripten.clang"
  },
  "schemaVersion": "2.0.0",
  "updatedAt": "2018-05-19T04:15:37.675Z"
}