{
  "contractName": "Hashminer",
  "abi": [
    {
      "inputs": [],
      "payable": false,
      "stateMutability": "nonpayable",
      "type": "constructor"
    },
    {
      "anonymous": false,
      "inputs": [
        {
          "indexed": false,
          "name": "_gameLocked",
          "type": "bool"
        }
      ],
      "name": "LogGameLock",
      "type": "event"
    },
    {
      "anonymous": false,
      "inputs": [
        {
          "indexed": false,
          "name": "_maxNumberOfPlayers",
          "type": "uint256"
        },
        {
          "indexed": false,
          "name": "_gameCost",
          "type": "uint256"
        },
        {
          "indexed": false,
          "name": "_prize",
          "type": "uint256"
        },
        {
          "indexed": false,
          "name": "_callerIncentive",
          "type": "uint256"
        }
      ],
      "name": "LogGameOptionsSet",
      "type": "event"
    },
    {
      "anonymous": false,
      "inputs": [
        {
          "indexed": false,
          "name": "_wallet",
          "type": "address"
        },
        {
          "indexed": false,
          "name": "_withdrawAmount",
          "type": "uint256"
        }
      ],
      "name": "LogHouseWithdraw",
      "type": "event"
    },
    {
      "anonymous": false,
      "inputs": [
        {
          "indexed": false,
          "name": "_playerCounter",
          "type": "uint256"
        },
        {
          "indexed": false,
          "name": "_wallet",
          "type": "address"
        }
      ],
      "name": "LogPlayerAdded",
      "type": "event"
    },
    {
      "anonymous": false,
      "inputs": [
        {
          "indexed": false,
          "name": "_blockNumber",
          "type": "uint256"
        }
      ],
      "name": "LogPlayersReady",
      "type": "event"
    },
    {
      "anonymous": false,
      "inputs": [
        {
          "indexed": false,
          "name": "_blockNumber",
          "type": "uint256"
        },
        {
          "indexed": false,
          "name": "_blockHash",
          "type": "bytes32"
        },
        {
          "indexed": false,
          "name": "_winningNonce",
          "type": "uint256"
        },
        {
          "indexed": false,
          "name": "_winner",
          "type": "address"
        },
        {
          "indexed": false,
          "name": "_caller",
          "type": "address"
        },
        {
          "indexed": false,
          "name": "_gameLocked",
          "type": "bool"
        }
      ],
      "name": "LogGameFinished",
      "type": "event"
    },
    {
      "constant": false,
      "inputs": [],
      "name": "kill",
      "outputs": [],
      "payable": false,
      "stateMutability": "nonpayable",
      "type": "function"
    },
    {
      "constant": false,
      "inputs": [],
      "name": "lockGame",
      "outputs": [],
      "payable": false,
      "stateMutability": "nonpayable",
      "type": "function"
    },
    {
      "constant": false,
      "inputs": [
        {
          "name": "_maxNumberOfPlayers",
          "type": "uint256"
        },
        {
          "name": "_gameCost",
          "type": "uint256"
        },
        {
          "name": "_prize",
          "type": "uint256"
        },
        {
          "name": "_callerIncentive",
          "type": "uint256"
        }
      ],
      "name": "setGameOptions",
      "outputs": [],
      "payable": false,
      "stateMutability": "nonpayable",
      "type": "function"
    },
    {
      "constant": false,
      "inputs": [
        {
          "name": "_withdrawAmount",
          "type": "uint256"
        },
        {
          "name": "_wallet",
          "type": "address"
        }
      ],
      "name": "houseWithdraw",
      "outputs": [],
      "payable": false,
      "stateMutability": "nonpayable",
      "type": "function"
    },
    {
      "constant": false,
      "inputs": [],
      "name": "playGame",
      "outputs": [],
      "payable": true,
      "stateMutability": "payable",
      "type": "function"
    },
    {
      "constant": false,
      "inputs": [],
      "name": "revealWinner",
      "outputs": [],
      "payable": false,
      "stateMutability": "nonpayable",
      "type": "function"
    },
    {
      "constant": true,
      "inputs": [],
      "name": "getGameInfo",
      "outputs": [
        {
          "name": "_owner",
          "type": "address"
        },
        {
          "name": "_gameLocked",
          "type": "bool"
        },
        {
          "name": "_maxNumberOfPlayers",
          "type": "uint256"
        },
        {
          "name": "_playerCounter",
          "type": "uint256"
        },
        {
          "name": "_gameCost",
          "type": "uint256"
        },
        {
          "name": "_blockNumber",
          "type": "uint256"
        },
        {
          "name": "_blockHash",
          "type": "bytes32"
        },
        {
          "name": "_winningNonce",
          "type": "uint256"
        },
        {
          "name": "_winner",
          "type": "address"
        },
        {
          "name": "_prize",
          "type": "uint256"
        },
        {
          "name": "_callerIncentive",
          "type": "uint256"
        },
        {
          "name": "_caller",
          "type": "address"
        }
      ],
      "payable": false,
      "stateMutability": "view",
      "type": "function"
    },
    {
      "constant": true,
      "inputs": [],
      "name": "getPlayersInfo",
      "outputs": [
        {
          "name": "",
          "type": "address[4]"
        }
      ],
      "payable": false,
      "stateMutability": "view",
      "type": "function"
    }
  ],
  "bytecode": "0x6060604052600460015566b1a2bc2ec5000060075566b1a2bc2ec50000600c5566071afd498d0000600d55341561003557600080fd5b336000806101000a81548173ffffffffffffffffffffffffffffffffffffffff021916908373ffffffffffffffffffffffffffffffffffffffff160217905550610c9b806100846000396000f30060606040526004361061008e576000357c0100000000000000000000000000000000000000000000000000000000900463ffffffff1680631746bd1b14610093578063284772851461019957806341c0e1b5146101ea57806349f1e459146101ff5780636c6999051461023d5780638e6f085114610252578063af89973514610294578063fef6e0151461029e575b600080fd5b341561009e57600080fd5b6100a66102b3565b604051808d73ffffffffffffffffffffffffffffffffffffffff1673ffffffffffffffffffffffffffffffffffffffff1681526020018c1515151581526020018b81526020018a815260200189815260200188815260200187600019166000191681526020018681526020018573ffffffffffffffffffffffffffffffffffffffff1673ffffffffffffffffffffffffffffffffffffffff1681526020018481526020018381526020018273ffffffffffffffffffffffffffffffffffffffff1673ffffffffffffffffffffffffffffffffffffffff1681526020019c5050505050505050505050505060405180910390f35b34156101a457600080fd5b6101ac61037b565b6040518082600460200280838360005b838110156101d75780820151818401526020810190506101bc565b5050505090500191505060405180910390f35b34156101f557600080fd5b6101fd6103fc565b005b341561020a57600080fd5b61023b60048080359060200190919080359060200190919080359060200190919080359060200190919050506104ba565b005b341561024857600080fd5b6102506105b7565b005b341561025d57600080fd5b610292600480803590602001909190803573ffffffffffffffffffffffffffffffffffffffff169060200190919050506108c3565b005b61029c6109f6565b005b34156102a957600080fd5b6102b1610b60565b005b6000806000806000806000806000806000806000809054906101000a900473ffffffffffffffffffffffffffffffffffffffff16600060149054906101000a900460ff16600154600654600754600854600954600a54600b60009054906101000a900473ffffffffffffffffffffffffffffffffffffffff16600c54600d54600e60009054906101000a900473ffffffffffffffffffffffffffffffffffffffff169b509b509b509b509b509b509b509b509b509b509b509b50909192939495969798999a9b565b610383610c31565b60026004806020026040519081016040528092919082600480156103f2576020028201915b8160009054906101000a900473ffffffffffffffffffffffffffffffffffffffff1673ffffffffffffffffffffffffffffffffffffffff16815260200190600101908083116103a8575b5050505050905090565b6000809054906101000a900473ffffffffffffffffffffffffffffffffffffffff1673ffffffffffffffffffffffffffffffffffffffff163373ffffffffffffffffffffffffffffffffffffffff1614151561045757600080fd5b600060149054906101000a900460ff16801561047557506000600654145b151561048057600080fd5b6000809054906101000a900473ffffffffffffffffffffffffffffffffffffffff1673ffffffffffffffffffffffffffffffffffffffff16ff5b6000809054906101000a900473ffffffffffffffffffffffffffffffffffffffff1673ffffffffffffffffffffffffffffffffffffffff163373ffffffffffffffffffffffffffffffffffffffff1614151561051557600080fd5b600060149054906101000a900460ff16801561053357506000600654145b151561053e57600080fd5b836001819055508260078190555081600c8190555080600d819055507fc44d140db23070d3c7b8d8483868914f9eaf531ffe2825bc2ff84629ceb909c0600154600754600c54600d546040518085815260200184815260200183815260200182815260200194505050505060405180910390a150505050565b6001546006541415156105c957600080fd5b600854431115156105d957600080fd5b600854406009816000191690555060018054036008546009546040518083815260200182600019166000191681526020019250505060405180910390206001900416600a819055506002600a5460048110151561063257fe5b0160009054906101000a900473ffffffffffffffffffffffffffffffffffffffff16600b60006101000a81548173ffffffffffffffffffffffffffffffffffffffff021916908373ffffffffffffffffffffffffffffffffffffffff160217905550600b60009054906101000a900473ffffffffffffffffffffffffffffffffffffffff1673ffffffffffffffffffffffffffffffffffffffff166108fc600c549081150290604051600060405180830381858888f1935050505015156106f857600080fd5b600060068190555033600e60006101000a81548173ffffffffffffffffffffffffffffffffffffffff021916908373ffffffffffffffffffffffffffffffffffffffff160217905550600e60009054906101000a900473ffffffffffffffffffffffffffffffffffffffff1673ffffffffffffffffffffffffffffffffffffffff166108fc600d549081150290604051600060405180830381858888f1935050505015156107a557600080fd5b7fa1636fb6520292aa04a81c133d8854b3a08ece78bbea15f23a4dccc8d8aee38c600854600954600a54600b60009054906101000a900473ffffffffffffffffffffffffffffffffffffffff16600e60009054906101000a900473ffffffffffffffffffffffffffffffffffffffff16600060149054906101000a900460ff166040518087815260200186600019166000191681526020018581526020018473ffffffffffffffffffffffffffffffffffffffff1673ffffffffffffffffffffffffffffffffffffffff1681526020018373ffffffffffffffffffffffffffffffffffffffff1673ffffffffffffffffffffffffffffffffffffffff16815260200182151515158152602001965050505050505060405180910390a1565b6000809054906101000a900473ffffffffffffffffffffffffffffffffffffffff1673ffffffffffffffffffffffffffffffffffffffff163373ffffffffffffffffffffffffffffffffffffffff1614151561091e57600080fd5b600060149054906101000a900460ff16801561093c57506000600654145b151561094757600080fd5b8073ffffffffffffffffffffffffffffffffffffffff166108fc839081150290604051600060405180830381858888f19350505050151561098757600080fd5b7f159fdf827a20724abca9e5456f024ab3f26aac0f5249e990d1664786c24041638183604051808373ffffffffffffffffffffffffffffffffffffffff1673ffffffffffffffffffffffffffffffffffffffff1681526020018281526020019250505060405180910390a15050565b60075434141515610a0657600080fd5b600060149054906101000a900460ff161580610a2457506000600654115b8015610a335750600154600654105b1515610a3e57600080fd5b336002600654600481101515610a5057fe5b0160006101000a81548173ffffffffffffffffffffffffffffffffffffffff021916908373ffffffffffffffffffffffffffffffffffffffff1602179055507f4b6a86cfc3e933c80212e4be1262848f3452f83be56ea753fba4a8972746803560065433604051808381526020018273ffffffffffffffffffffffffffffffffffffffff1673ffffffffffffffffffffffffffffffffffffffff1681526020019250505060405180910390a16006600081548092919060010191905055506001546006541415610b5e57600343016008819055507f3eec234f039bf7eff193599272a894866d5a858c820efb47547511e5f8f3cd1d6008546040518082815260200191505060405180910390a15b565b6000809054906101000a900473ffffffffffffffffffffffffffffffffffffffff1673ffffffffffffffffffffffffffffffffffffffff163373ffffffffffffffffffffffffffffffffffffffff16141515610bbb57600080fd5b600060149054906101000a900460ff1615600060146101000a81548160ff0219169083151502179055507feeaa626a63befc8516ccacd3c2d2528dbb2a56dc447678a2d05c9b25fbe3417b600060149054906101000a900460ff16604051808215151515815260200191505060405180910390a1565b6080604051908101604052806004905b600073ffffffffffffffffffffffffffffffffffffffff16815260200190600190039081610c4157905050905600a165627a7a7230582066c3ab9d828b306b82aedb911595b0bf90315cd4afe766bd2e535efc71e561640029",
  "source": "pragma solidity ^0.4.19;\r\n\r\ncontract Hashminer {\r\n  // custom types\r\n  struct Player {\r\n  uint nonce;\r\n  address wallet;\r\n  }\r\n\r\n  // state variables\r\n  address owner;\r\n  bool gameLocked;\r\n  uint maxNumberOfPlayers = 4; // must be 2^N\r\n  address[4] activePlayers; // array size must be maxNumberOfPlayers\r\n  uint playerCounter;\r\n  uint gameCost = 50 finney;\r\n  uint blockNumber;\r\n  bytes32 blockHash;\r\n  uint winningNonce;\r\n  address winner;\r\n  uint prize = 50 finney;\r\n  uint callerIncentive = 2 finney;\r\n  address caller;\r\n\r\n  // events\r\n  event LogGameLock(\r\n    bool _gameLocked\r\n  );\r\n  event LogGameOptionsSet(\r\n    uint _maxNumberOfPlayers,\r\n    uint _gameCost,\r\n    uint _prize,\r\n    uint _callerIncentive\r\n  );\r\n  event LogHouseWithdraw(\r\n    address _wallet,\r\n    uint _withdrawAmount\r\n  );\r\n  event LogPlayerAdded(\r\n    uint _playerCounter,\r\n    address _wallet\r\n  );\r\n  event LogPlayersReady(\r\n    uint _blockNumber\r\n  );\r\n  event LogGameFinished(\r\n    uint _blockNumber,\r\n    bytes32 _blockHash,\r\n    uint _winningNonce,\r\n    address _winner,\r\n    address _caller,\r\n    bool _gameLocked\r\n  );\r\n\r\n  // constructor\r\n  function Hashminer() public {\r\n    owner = msg.sender;\r\n  }\r\n\r\n  // deactivate the contract\r\n  function kill() public {\r\n    // only allow the contract owner\r\n    require(msg.sender == owner);\r\n\r\n    // check that game is locked and not active. This ensures deactivation is only possible when game is inactive\r\n    require(gameLocked && (playerCounter == 0));\r\n\r\n    selfdestruct(owner);\r\n  }\r\n\r\n  // lock or unlock game after current game ends for game option changes and front-end updates\r\n  function lockGame() public {\r\n    // only allow the contract owner\r\n    require(msg.sender == owner);\r\n\r\n    // lock/unlock game\r\n    gameLocked = !gameLocked;\r\n    LogGameLock(gameLocked);\r\n  }\r\n\r\n  // change game settings\r\n  function setGameOptions(uint _maxNumberOfPlayers, uint _gameCost,\r\n    uint _prize, uint _callerIncentive) public {\r\n    // only allow the contract owner to make changes\r\n    require(msg.sender == owner);\r\n\r\n    // check that game is locked and not active. This ensures game rules are not changed during game\r\n    require(gameLocked && (playerCounter == 0));\r\n\r\n    // change game settings\r\n    maxNumberOfPlayers = _maxNumberOfPlayers;\r\n    gameCost = _gameCost;\r\n    prize = _prize;\r\n    callerIncentive = _callerIncentive;\r\n    LogGameOptionsSet(maxNumberOfPlayers, gameCost, prize, callerIncentive);\r\n  }\r\n\r\n  // transfer funds from house to given an address\r\n  function houseWithdraw(uint _withdrawAmount, address _wallet) public {\r\n    // only allow the contract owner to withdraw\r\n    require(msg.sender == owner);\r\n\r\n    // check that game is locked and not active. This ensures there will be enough funds to pay the current game winner\r\n    require(gameLocked && (playerCounter == 0));\r\n\r\n    // transfer to  address _wallet\r\n    _wallet.transfer(_withdrawAmount);\r\n    LogHouseWithdraw(_wallet, _withdrawAmount);\r\n  }\r\n\r\n  // add player to the game\r\n  function playGame() payable public {\r\n    // check that value transferred matches the cost to play\r\n    require(msg.value == gameCost);\r\n\r\n    // check that game is unlocked or already active, and not full\r\n    require(((!gameLocked) || (playerCounter > 0)) && (playerCounter < maxNumberOfPlayers));\r\n\r\n    // save player struct with nonce and address in players[]\r\n    activePlayers[playerCounter] = msg.sender;\r\n\r\n    LogPlayerAdded(playerCounter, msg.sender);\r\n\r\n    // add new player\r\n    playerCounter++;\r\n\r\n    // save number of the block that will determine the winner if game is full\r\n    if (playerCounter == maxNumberOfPlayers) {\r\n      blockNumber = block.number + 3;\r\n      LogPlayersReady(blockNumber);\r\n    }\r\n  }\r\n\r\n  // reveal game winner, transfer the prize and the reward to the caller\r\n  function revealWinner() public {\r\n    // check that game is full\r\n    require(playerCounter == maxNumberOfPlayers);\r\n\r\n    // check that the block that determines the winner has been mined\r\n    require(block.number > blockNumber);\r\n\r\n    // obtain hash of the block that determined the winner\r\n    blockHash = block.blockhash(blockNumber);\r\n\r\n    // obtain winning nonce. The desired blockHash ending for a given nonce is varied each game\r\n    winningNonce = (uint(keccak256(blockNumber, blockHash)) & (maxNumberOfPlayers - 1));\r\n\r\n    // transfer prize to winning player\r\n    winner =activePlayers[winningNonce];\r\n    winner.transfer(prize);\r\n\r\n    // reset playerCounter\r\n    playerCounter = 0;\r\n\r\n    // store the caller address and transfer their reward\r\n    caller = msg.sender;\r\n    caller.transfer(callerIncentive);\r\n    LogGameFinished(blockNumber, blockHash, winningNonce, winner, caller, gameLocked);\r\n  }\r\n\r\n  // get game information\r\n  function getGameInfo() public view returns (\r\n    address _owner,\r\n    bool _gameLocked,\r\n    uint _maxNumberOfPlayers,\r\n    uint _playerCounter,\r\n    uint _gameCost,\r\n    uint _blockNumber,\r\n    bytes32 _blockHash,\r\n    uint _winningNonce,\r\n    address _winner,\r\n    uint _prize,\r\n    uint _callerIncentive,\r\n    address _caller\r\n    ) {\r\n    return(\r\n      owner,\r\n      gameLocked,\r\n      maxNumberOfPlayers,\r\n      playerCounter,\r\n      gameCost,\r\n      blockNumber,\r\n      blockHash,\r\n      winningNonce,\r\n      winner,\r\n      prize,\r\n      callerIncentive,\r\n      caller);\r\n  }\r\n\r\n  // get current players information\r\n  function getPlayersInfo() public view returns (address[4]) {\r\n    return (activePlayers);\r\n  }\r\n\r\n}\r\n",
  "sourcePath": "C:\\Users\\handr\\Garrison\\Hashminer\\contracts\\Hashminer.sol",
  "compiler": {
    "name": "solc",
    "version": "0.4.19+commit.c4cbbb05.Emscripten.clang"
  },
  "schemaVersion": "2.0.0",
  "updatedAt": "2018-05-29T00:58:29.439Z"
}