{
  "contractName": "Hashminer",
  "abi": [
    {
      "constant": true,
      "inputs": [
        {
          "name": "",
          "type": "uint256"
        }
      ],
      "name": "players",
      "outputs": [
        {
          "name": "nonce",
          "type": "uint256"
        },
        {
          "name": "wallet",
          "type": "address"
        }
      ],
      "payable": false,
      "stateMutability": "view",
      "type": "function"
    },
    {
      "inputs": [],
      "payable": false,
      "stateMutability": "nonpayable",
      "type": "constructor"
    },
    {
      "anonymous": false,
      "inputs": [
        {
          "indexed": false,
          "name": "_gameLocked",
          "type": "bool"
        }
      ],
      "name": "LogGameLock",
      "type": "event"
    },
    {
      "anonymous": false,
      "inputs": [
        {
          "indexed": false,
          "name": "_maxNumberOfPlayers",
          "type": "uint256"
        },
        {
          "indexed": false,
          "name": "_gameCost",
          "type": "uint256"
        },
        {
          "indexed": false,
          "name": "_prize",
          "type": "uint256"
        },
        {
          "indexed": false,
          "name": "_callerIncentive",
          "type": "uint256"
        }
      ],
      "name": "LogGameOptionsSet",
      "type": "event"
    },
    {
      "anonymous": false,
      "inputs": [
        {
          "indexed": false,
          "name": "_wallet",
          "type": "address"
        },
        {
          "indexed": false,
          "name": "_withdrawAmount",
          "type": "uint256"
        }
      ],
      "name": "LogHouseWithdraw",
      "type": "event"
    },
    {
      "anonymous": false,
      "inputs": [
        {
          "indexed": false,
          "name": "_playerCounter",
          "type": "uint256"
        },
        {
          "indexed": false,
          "name": "_nonce",
          "type": "uint256"
        },
        {
          "indexed": false,
          "name": "_wallet",
          "type": "address"
        }
      ],
      "name": "LogPlayerAdded",
      "type": "event"
    },
    {
      "anonymous": false,
      "inputs": [
        {
          "indexed": false,
          "name": "_blockNumber",
          "type": "uint256"
        }
      ],
      "name": "LogPlayersReady",
      "type": "event"
    },
    {
      "anonymous": false,
      "inputs": [
        {
          "indexed": false,
          "name": "_blockNumber",
          "type": "uint256"
        },
        {
          "indexed": false,
          "name": "_blockHash",
          "type": "bytes32"
        },
        {
          "indexed": false,
          "name": "_winningNonce",
          "type": "uint256"
        },
        {
          "indexed": false,
          "name": "_winner",
          "type": "address"
        },
        {
          "indexed": false,
          "name": "_caller",
          "type": "address"
        },
        {
          "indexed": false,
          "name": "_gameLocked",
          "type": "bool"
        }
      ],
      "name": "LogGameFinished",
      "type": "event"
    },
    {
      "constant": false,
      "inputs": [],
      "name": "kill",
      "outputs": [],
      "payable": false,
      "stateMutability": "nonpayable",
      "type": "function"
    },
    {
      "constant": false,
      "inputs": [],
      "name": "lockGame",
      "outputs": [],
      "payable": false,
      "stateMutability": "nonpayable",
      "type": "function"
    },
    {
      "constant": false,
      "inputs": [
        {
          "name": "_maxNumberOfPlayers",
          "type": "uint256"
        },
        {
          "name": "_gameCost",
          "type": "uint256"
        },
        {
          "name": "_prize",
          "type": "uint256"
        },
        {
          "name": "_callerIncentive",
          "type": "uint256"
        }
      ],
      "name": "setGameOptions",
      "outputs": [],
      "payable": false,
      "stateMutability": "nonpayable",
      "type": "function"
    },
    {
      "constant": false,
      "inputs": [
        {
          "name": "_withdrawAmount",
          "type": "uint256"
        },
        {
          "name": "_wallet",
          "type": "address"
        }
      ],
      "name": "houseWithdraw",
      "outputs": [],
      "payable": false,
      "stateMutability": "nonpayable",
      "type": "function"
    },
    {
      "constant": false,
      "inputs": [
        {
          "name": "_nonce",
          "type": "uint256"
        }
      ],
      "name": "playGame",
      "outputs": [],
      "payable": true,
      "stateMutability": "payable",
      "type": "function"
    },
    {
      "constant": false,
      "inputs": [],
      "name": "revealWinner",
      "outputs": [],
      "payable": false,
      "stateMutability": "nonpayable",
      "type": "function"
    },
    {
      "constant": true,
      "inputs": [],
      "name": "getGameInfo",
      "outputs": [
        {
          "name": "_owner",
          "type": "address"
        },
        {
          "name": "_gameLocked",
          "type": "bool"
        },
        {
          "name": "_maxNumberOfPlayers",
          "type": "uint256"
        },
        {
          "name": "_playerCounter",
          "type": "uint256"
        },
        {
          "name": "_gameCost",
          "type": "uint256"
        },
        {
          "name": "_blockNumber",
          "type": "uint256"
        },
        {
          "name": "_blockHash",
          "type": "bytes32"
        },
        {
          "name": "_winningNonce",
          "type": "uint256"
        },
        {
          "name": "_winner",
          "type": "address"
        },
        {
          "name": "_prize",
          "type": "uint256"
        },
        {
          "name": "_callerIncentive",
          "type": "uint256"
        },
        {
          "name": "_caller",
          "type": "address"
        }
      ],
      "payable": false,
      "stateMutability": "view",
      "type": "function"
    },
    {
      "constant": true,
      "inputs": [],
      "name": "getPlayersInfo",
      "outputs": [
        {
          "name": "",
          "type": "address[]"
        },
        {
          "name": "",
          "type": "uint256[]"
        }
      ],
      "payable": false,
      "stateMutability": "view",
      "type": "function"
    }
  ],
  "bytecode": "0x6080604052600460015566b1a2bc2ec5000060455566b1a2bc2ec50000604a5566071afd498d0000604b5534801561003657600080fd5b50336000806101000a81548173ffffffffffffffffffffffffffffffffffffffff021916908373ffffffffffffffffffffffffffffffffffffffff160217905550610fca806100866000396000f300608060405260043610610099576000357c0100000000000000000000000000000000000000000000000000000000900463ffffffff1680631746bd1b1461009e57806328477285146101a657806341c0e1b51461025a57806349f1e459146102715780635873533d146102bc5780636c699905146102dc5780638e6f0851146102f3578063f71d96cb14610340578063fef6e015146103b4575b600080fd5b3480156100aa57600080fd5b506100b36103cb565b604051808d73ffffffffffffffffffffffffffffffffffffffff1673ffffffffffffffffffffffffffffffffffffffff1681526020018c1515151581526020018b81526020018a815260200189815260200188815260200187600019166000191681526020018681526020018573ffffffffffffffffffffffffffffffffffffffff1673ffffffffffffffffffffffffffffffffffffffff1681526020018481526020018381526020018273ffffffffffffffffffffffffffffffffffffffff1673ffffffffffffffffffffffffffffffffffffffff1681526020019c5050505050505050505050505060405180910390f35b3480156101b257600080fd5b506101bb610493565b604051808060200180602001838103835285818151815260200191508051906020019060200280838360005b838110156102025780820151818401526020810190506101e7565b50505050905001838103825284818151815260200191508051906020019060200280838360005b83811015610244578082015181840152602081019050610229565b5050505090500194505050505060405180910390f35b34801561026657600080fd5b5061026f610625565b005b34801561027d57600080fd5b506102ba600480360381019080803590602001909291908035906020019092919080359060200190929190803590602001909291905050506106e3565b005b6102da600480360381019080803590602001909291905050506107e0565b005b3480156102e857600080fd5b506102f16109f6565b005b3480156102ff57600080fd5b5061033e60048036038101908080359060200190929190803573ffffffffffffffffffffffffffffffffffffffff169060200190929190505050610d4f565b005b34801561034c57600080fd5b5061036b60048036038101908080359060200190929190505050610e89565b604051808381526020018273ffffffffffffffffffffffffffffffffffffffff1673ffffffffffffffffffffffffffffffffffffffff1681526020019250505060405180910390f35b3480156103c057600080fd5b506103c9610ecd565b005b6000806000806000806000806000806000806000809054906101000a900473ffffffffffffffffffffffffffffffffffffffff16600060149054906101000a900460ff16600154604454604554604654604754604854604960009054906101000a900473ffffffffffffffffffffffffffffffffffffffff16604a54604b54604c60009054906101000a900473ffffffffffffffffffffffffffffffffffffffff169b509b509b509b509b509b509b509b509b509b509b509b50909192939495969798999a9b565b60608060608060006044546040519080825280602002602001820160405280156104cc5781602001602082028038833980820191505090505b5092506044546040519080825280602002602001820160405280156105005781602001602082028038833980820191505090505b509150600090505b6044548111151561061857600060036001830160418110151561052757fe5b015414151561060b576002600060036001840160418110151561054657fe5b0154815260200190815260200160002060010160009054906101000a900473ffffffffffffffffffffffffffffffffffffffff16838281518110151561058857fe5b9060200190602002019073ffffffffffffffffffffffffffffffffffffffff16908173ffffffffffffffffffffffffffffffffffffffff1681525050600260006003600184016041811015156105da57fe5b015481526020019081526020016000206000015482828151811015156105fc57fe5b90602001906020020181815250505b8080600101915050610508565b8282945094505050509091565b6000809054906101000a900473ffffffffffffffffffffffffffffffffffffffff1673ffffffffffffffffffffffffffffffffffffffff163373ffffffffffffffffffffffffffffffffffffffff1614151561068057600080fd5b600060149054906101000a900460ff16801561069e57506000604454145b15156106a957600080fd5b6000809054906101000a900473ffffffffffffffffffffffffffffffffffffffff1673ffffffffffffffffffffffffffffffffffffffff16ff5b6000809054906101000a900473ffffffffffffffffffffffffffffffffffffffff1673ffffffffffffffffffffffffffffffffffffffff163373ffffffffffffffffffffffffffffffffffffffff1614151561073e57600080fd5b600060149054906101000a900460ff16801561075c57506000604454145b151561076757600080fd5b836001819055508260458190555081604a8190555080604b819055507fc44d140db23070d3c7b8d8483868914f9eaf531ffe2825bc2ff84629ceb909c0600154604554604a54604b546040518085815260200184815260200183815260200182815260200194505050505060405180910390a150505050565b6000604554341415156107f257600080fd5b600060149054906101000a900460ff16158061081057506000604454115b151561081b57600080fd5b81600010801561082d57506001548211155b151561083857600080fd5b600190505b604454811115156108725760038160418110151561085757fe5b015482141561086557600080fd5b808060010191505061083d565b60446000815480929190600101919050555060408051908101604052808381526020013373ffffffffffffffffffffffffffffffffffffffff16815250600260008481526020019081526020016000206000820151816000015560208201518160010160006101000a81548173ffffffffffffffffffffffffffffffffffffffff021916908373ffffffffffffffffffffffffffffffffffffffff16021790555090505081600360445460418110151561092857fe5b01819055507f6a6770f1cb5f64375eb2d13a80705a7569fd70431c93463f1d6c9d7c0cb796516044548333604051808481526020018381526020018273ffffffffffffffffffffffffffffffffffffffff1673ffffffffffffffffffffffffffffffffffffffff168152602001935050505060405180910390a160015460445414156109f257600343016046819055507f3eec234f039bf7eff193599272a894866d5a858c820efb47547511e5f8f3cd1d6046546040518082815260200191505060405180910390a15b5050565b6000600154604454141515610a0a57600080fd5b60465443111515610a1a57600080fd5b60465440604781600019169055506001806001540360465460475460405180838152602001826000191660001916815260200192505050604051809103902060019004160160488190555060026000604854815260200190815260200160002060010160009054906101000a900473ffffffffffffffffffffffffffffffffffffffff16604960006101000a81548173ffffffffffffffffffffffffffffffffffffffff021916908373ffffffffffffffffffffffffffffffffffffffff160217905550604960009054906101000a900473ffffffffffffffffffffffffffffffffffffffff1673ffffffffffffffffffffffffffffffffffffffff166108fc604a549081150290604051600060405180830381858888f19350505050158015610b48573d6000803e3d6000fd5b506000604481905550600190505b60015481111515610b84576000600382604181101515610b7257fe5b01819055508080600101915050610b56565b33604c60006101000a81548173ffffffffffffffffffffffffffffffffffffffff021916908373ffffffffffffffffffffffffffffffffffffffff160217905550604c60009054906101000a900473ffffffffffffffffffffffffffffffffffffffff1673ffffffffffffffffffffffffffffffffffffffff166108fc604b549081150290604051600060405180830381858888f19350505050158015610c2f573d6000803e3d6000fd5b507fa1636fb6520292aa04a81c133d8854b3a08ece78bbea15f23a4dccc8d8aee38c604654604754604854604960009054906101000a900473ffffffffffffffffffffffffffffffffffffffff16604c60009054906101000a900473ffffffffffffffffffffffffffffffffffffffff16600060149054906101000a900460ff166040518087815260200186600019166000191681526020018581526020018473ffffffffffffffffffffffffffffffffffffffff1673ffffffffffffffffffffffffffffffffffffffff1681526020018373ffffffffffffffffffffffffffffffffffffffff1673ffffffffffffffffffffffffffffffffffffffff16815260200182151515158152602001965050505050505060405180910390a150565b6000809054906101000a900473ffffffffffffffffffffffffffffffffffffffff1673ffffffffffffffffffffffffffffffffffffffff163373ffffffffffffffffffffffffffffffffffffffff16141515610daa57600080fd5b600060149054906101000a900460ff168015610dc857506000604454145b1515610dd357600080fd5b8073ffffffffffffffffffffffffffffffffffffffff166108fc839081150290604051600060405180830381858888f19350505050158015610e19573d6000803e3d6000fd5b507f159fdf827a20724abca9e5456f024ab3f26aac0f5249e990d1664786c24041638183604051808373ffffffffffffffffffffffffffffffffffffffff1673ffffffffffffffffffffffffffffffffffffffff1681526020018281526020019250505060405180910390a15050565b60026020528060005260406000206000915090508060000154908060010160009054906101000a900473ffffffffffffffffffffffffffffffffffffffff16905082565b6000809054906101000a900473ffffffffffffffffffffffffffffffffffffffff1673ffffffffffffffffffffffffffffffffffffffff163373ffffffffffffffffffffffffffffffffffffffff16141515610f2857600080fd5b600060149054906101000a900460ff1615600060146101000a81548160ff0219169083151502179055507feeaa626a63befc8516ccacd3c2d2528dbb2a56dc447678a2d05c9b25fbe3417b600060149054906101000a900460ff16604051808215151515815260200191505060405180910390a15600a165627a7a7230582024d9c4a40425489e5350821ff0538fa3ed393f1bf1216308dac06a1fcf242fe50029",
  "source": "pragma solidity ^0.4.19;\n\ncontract Hashminer {\n  // custom types\n  struct Player {\n  uint nonce;\n  address wallet;\n  }\n\n  // state variables\n  address owner;\n  bool gameLocked;\n  uint maxNumberOfPlayers = 4; // must be 2^N\n  mapping (uint => Player) public players;\n  uint[65] takenNonces; // array size must be at least maxNumberOfPlayers+1\n  uint playerCounter;\n  uint gameCost = 50 finney;\n  uint blockNumber;\n  bytes32 blockHash;\n  uint winningNonce;\n  address winner;\n  uint prize = 50 finney;\n  uint callerIncentive = 2 finney;\n  address caller;\n\n  // events\n  event LogGameLock(\n    bool _gameLocked\n  );\n  event LogGameOptionsSet(\n    uint _maxNumberOfPlayers,\n    uint _gameCost,\n    uint _prize,\n    uint _callerIncentive\n  );\n  event LogHouseWithdraw(\n    address _wallet,\n    uint _withdrawAmount\n  );\n  event LogPlayerAdded(\n    uint _playerCounter,\n    uint _nonce,\n    address _wallet\n  );\n  event LogPlayersReady(\n    uint _blockNumber\n  );\n  event LogGameFinished(\n    uint _blockNumber,\n    bytes32 _blockHash,\n    uint _winningNonce,\n    address _winner,\n    address _caller,\n    bool _gameLocked\n  );\n\n  // constructor\n  function Hashminer() public {\n    owner = msg.sender;\n  }\n\n  // deactivate the contract\n  function kill() public {\n    // only allow the contract owner\n    require(msg.sender == owner);\n\n    // check that game is locked and not active. This ensures deactivation is only possible when game is inactive\n    require(gameLocked && (playerCounter == 0));\n\n    selfdestruct(owner);\n  }\n\n  // lock or unlock game after current game ends for game option changes and front-end updates\n  function lockGame() public {\n    // only allow the contract owner\n    require(msg.sender == owner);\n\n    // lock/unlock game\n    gameLocked = !gameLocked;\n    LogGameLock(gameLocked);\n  }\n\n  // change game settings\n  function setGameOptions(uint _maxNumberOfPlayers, uint _gameCost,\n    uint _prize, uint _callerIncentive) public {\n    // only allow the contract owner to make changes\n    require(msg.sender == owner);\n\n    // check that game is locked and not active. This ensures game rules are not changed during game\n    require(gameLocked && (playerCounter == 0));\n\n    // change game settings\n    maxNumberOfPlayers = _maxNumberOfPlayers;\n    gameCost = _gameCost;\n    prize = _prize;\n    callerIncentive = _callerIncentive;\n    LogGameOptionsSet(maxNumberOfPlayers, gameCost, prize, callerIncentive);\n  }\n\n  // transfer funds from house to given an address\n  function houseWithdraw(uint _withdrawAmount, address _wallet) public {\n    // only allow the contract owner to withdraw\n    require(msg.sender == owner);\n\n    // check that game is locked and not active. This ensures there will be enough funds to pay the current game winner\n    require(gameLocked && (playerCounter == 0));\n\n    // transfer to  address _wallet\n    _wallet.transfer(_withdrawAmount);\n    LogHouseWithdraw(_wallet, _withdrawAmount);\n  }\n\n  // add player to the game\n  function playGame(uint _nonce) payable public {\n    // check that value transferred matches the cost to play\n    require(msg.value == gameCost);\n\n    // check that game is unlocked or already active\n    require((!gameLocked) || (playerCounter > 0));\n\n    // check that the nonce is within the accepted range of values\n    require((0 < _nonce) && (_nonce <= maxNumberOfPlayers));\n\n    // check that the nonce has not been taken. This also checks that the game is not full.\n    for (uint i = 1; i <= playerCounter; i++) {\n      if (_nonce == takenNonces[i]) {revert();}\n    }\n\n    // add new player\n    playerCounter++;\n    players[_nonce] = Player(_nonce, msg.sender);\n\n    // add nonce to list of already chosen ones.\n    takenNonces[playerCounter] = _nonce;\n\n    LogPlayerAdded(playerCounter, _nonce, msg.sender);\n\n    // save number of the block that will determine the winner if game is full\n    if (playerCounter == maxNumberOfPlayers) {\n      blockNumber = block.number + 3;\n      LogPlayersReady(blockNumber);\n    }\n  }\n\n  // reveal game winner, transfer the prize and the reward to the caller\n  function revealWinner() public {\n    // check that game is full\n    require(playerCounter == maxNumberOfPlayers);\n\n    // check that the block that determines the winner has been mined\n    require(block.number > blockNumber);\n\n    // obtain hash of the block that determined the winner\n    blockHash = block.blockhash(blockNumber);\n\n    // obtain winning nonce. The desired blockHash ending for a given nonce is varied each game\n    winningNonce = (uint(keccak256(blockNumber, blockHash)) & (maxNumberOfPlayers - 1)) + 1;\n\n    // transfer prize to winning player\n    winner = players[winningNonce].wallet;\n    winner.transfer(prize);\n\n    // reset playerCounter and takenNonces to restart game. BETTER WAY TO DO THIS WITHOUT LOOPING!!!????\n    playerCounter = 0;\n    for (uint j = 1; j <= maxNumberOfPlayers; j++) {\n      takenNonces[j] = 0;\n    }\n\n    // store the caller address and transfer their reward\n    caller = msg.sender;\n    caller.transfer(callerIncentive);\n    LogGameFinished(blockNumber, blockHash, winningNonce, winner, caller, gameLocked);\n  }\n\n  // get game information\n  function getGameInfo() public view returns (\n    address _owner,\n    bool _gameLocked,\n    uint _maxNumberOfPlayers,\n    uint _playerCounter,\n    uint _gameCost,\n    uint _blockNumber,\n    bytes32 _blockHash,\n    uint _winningNonce,\n    address _winner,\n    uint _prize,\n    uint _callerIncentive,\n    address _caller\n    ) {\n    return(\n      owner,\n      gameLocked,\n      maxNumberOfPlayers,\n      playerCounter,\n      gameCost,\n      blockNumber,\n      blockHash,\n      winningNonce,\n      winner,\n      prize,\n      callerIncentive,\n      caller);\n  }\n\n  // get current players information\n  function getPlayersInfo() public view returns (address[], uint[]) {\n    // prepare output arrays\n    address[] memory playerAddresses = new address[](playerCounter);\n    uint[] memory playerNonces = new uint[](playerCounter);\n\n    // iterate over all taken nonces\n    for(uint i = 0; i <= playerCounter;  i++) {\n      // save the player address and nonce if that nonce has already been selected\n      if(takenNonces[i+1] != 0) {\n        playerAddresses[i] = players[takenNonces[i+1]].wallet;\n        playerNonces[i] = players[takenNonces[i+1]].nonce;\n      }\n    }\n\n    return (playerAddresses, playerNonces);\n  }\n\n}\n",
  "sourcePath": "/home/jo/Dev/Hashminer/contracts/Hashminer.sol",
  "compiler": {
    "name": "solc",
    "version": "0.4.23+commit.124ca40d.Emscripten.clang"
  },
  "schemaVersion": "2.0.0",
  "updatedAt": "2018-05-09T13:48:02.259Z"
}